:02000004C0D06A
:10000000B0B58CB062B600280AD0044601200002C8
:100010002168814202D0022004F0D4FF606803E02E
:100020002548784404F058FD2149086003F036FE65
:10003000204C01200102204607F02AFD6D4628468B
:1000400007F00CFEA88585B2002D0BD06846002174
:1000500081850A9805F01CF80A9805F019F8102D0A
:10006000E7D01FE06D46284605F012F80A9003F02D
:1000700081FF01F079FC002006F056FC012006F01B
:1000800053FC02F037FD00F06BF904F0F5FFA842D5
:1000900002D10A9804F0FCFF6846808D0028C8D081
:1000A00003F034FE03F0DAFD00200CB0B0BDC04612
:1000B000081D0020901D0020FA890000054806490F
:1000C0007944064A7A44064B7B440260416083606F
:1000D0007047C04600180020A87D0000587D000031
:1000E000EC7D0000F0B58DB01E460B920A910446DF
:1000F0000CA800270322394603F0EBFDFF20523005
:100100003C4A1018031B217850798000401C0818C5
:10011000801D67252D02127990425ED109950891C4
:100120006578FE222A40A01CD524E10107914C1CD1
:10013000022A5AD10696002D0CD0002406462746E6
:100140003278BF18791999424BDCB1184E1C641CE7
:10015000AC42F5D3E9194B1C08998B4201D1079A9F
:1001600009928B42069E3FD1002D099C3DD0002272
:10017000214E11460592049101780991401C089086
:1001800000270CA8C05D002811D1306804F0A4FC41
:1001900069460B9A0A60089A4A60099A8A600124A3
:1001A000032221460A9B04F0A5FE002804D1361D37
:1001B0007F1C032FE5D312E00CA8C45509980899B9
:1001C0000818059A521C049B591CAA420A4ED1D306
:1001D0001906079C069E0AD107E02C4605E0079CFD
:1001E00000E0099C069E00E0099C348000200DB0D0
:1001F000F0BDC0465820002000180020F0B58DB09A
:100200004D484E4F00263E525B20C0003E5401AD8B
:10021000284607F023FD0446A88580B2002817D0A1
:1002200010287ED001A886850B9804F031FF47483E
:10023000395C0029404D23D0795B414ABA5A130AF0
:10024000414C635463185A703E54881C78531DE027
:1002500001A804F01DFF0B90388801F028FF3878C2
:10026000002825D03648374939526F21AA20324C10
:100270003A5B354B995499184870901C385309E0F3
:100280000220785330486F21017044702B480121BF
:1002900001F008FF04F0F0FE01A9884202D10B989A
:1002A00004F0F6FE01A8808D002842D10DB0F0BD0B
:1002B00025494A780B780020254C7C44254D7D4407
:1002C000265CB34202D12E5CB2420BD0401C0E28F9
:1002D000F6D3C2B20E2A05D16D210802184AB852CF
:1002E0000020C4E71C4A7A44125C002A124C07D052
:1002F000B5229200097900290DD0B95A05290AD0F2
:10030000800016497944085804F0E6FB80470C4900
:100310007852010AACE767210802094AB852002066
:10032000A6E701A886850B9804F0B2FE102003F022
:10033000EDFC03F0EBFCC046D60200008018002064
:10034000DA020000AA6F000058200020D902000045
:10035000FF7C0000097D0000EF7C0000E07C0000D5
:100360000C480024FF22214603F0B3FC5B25E80083
:10037000094E3454094FF4532046C0B2A1B203F0E1
:1003800007FFB52189007052FFF738FFF45BE800E2
:10039000305CF2E75820002080180020D6020000D0
:1003A0006D2000027047000010B51148784404F039
:1003B00093FB80790B490C4A082353520B49302296
:1003C0004A7001228A700323CB7012240C714A7187
:1003D00000248C71CB7110401B2242400A7009200E
:1003E000000310BDD6020000801800205820002015
:1003F000D09700006D20000270476D20000270470A
:10040000F0B5B1B0564C26795A4D7D44284604F0DB
:1004100063FB808801F04BFE284604F05DFB80887A
:10042000C0B2504F042800D992E03546012631462B
:1004300081401620014200D18AE0A1786B2002029F
:10044000002080291BD0002900D082E0601D0027F9
:10045000314605923A4601F032FC2D210901424A0B
:100460005050B320800017546D2080001654B120E6
:10047000800017541775D777059A3A4F0420E17812
:10048000002966D1291A394A374EB1542018401D27
:100490005921C9007050012001F0D8FE0920020343
:1004A000307D082855D1394600273775B3208000A4
:1004B000305C002850D020256846456006A903918D
:1004C0000160304648300121029105923A463B4690
:1004D00004F098FC08210491204604F085FC3220A9
:1004E000207067700EAF384604F0ACFC6846211DE2
:1004F00022C038460299039A2B462F4604F082FC0C
:100500002D20000131582046243001F0FCFB20460C
:10051000283031461531049D2A4603F0C4FB1648A5
:10052000784404F0D9FA6A463946576029AF176013
:1005300008303023224604F091FC303420463946FE
:100540002A4603F0B0FB059A09483821315200E0F1
:100550003A46104631B0F0BD0A46FB32F9E7C046D4
:10056000582000208569000080180020C702000084
:10057000D6020000729700005C960000F0B5A3B0B0
:10058000B94D7D44284604F0A7FA8779AF4CA0788E
:100590000790284604F0A0FA2925405D012637403F
:1005A000069700270028089709D0A0780228089FFE
:1005B00005D1A7488079C01F00210F1A4741AB48D9
:1005C000784404F089FA405D079901290AD0002F88
:1005D00008D1002806D09E488079C01F0021091A42
:1005E000414108916B200502A078022800D92AE138
:1005F000E278022A11D3032A08D0022A00D022E18D
:10060000944800684069002807D11CE191480068BF
:100610002021405C022800D015E1672005022079E6
:10062000002800D10FE10592611D18A8292203F0CE
:100630003AFB002F09D060798000801DC0B22018DD
:100640000121002201F03BFB1790894D7D44284693
:1006500004F042FA808801F02AFD284604F03CFAB2
:100660007D49CD1C8088C0B2042800D9EBE08640CB
:100670001620064200D1E6E004F08CFC00282BD0C6
:1006800018A801210FAA01F0FFFB4125257006984B
:10069000002804D17148083001F0FCF92125601CC4
:1006A0006E4908314122049003F0FDFA059A012AAF
:1006B00016D0032A12D109AE04982946324601F019
:1006C0005DFB002069460860224643321421322334
:1006D000304602F08FF948E05F4DB4E0022A38D18D
:1006E00009A8142102914170002103910170861C18
:1006F00004982946324601F041FB059802281CD196
:1007000005965448006840690028069E2FD004F0E2
:10071000E3F901466846029A02602046433000220F
:100720000490059B04F0BAFA0546C0B201281ED118
:10073000049807F0F1FA054619E04948408D6946EA
:100740000860039848602246433209A81621962380
:1007500009E04348008D00216A4603C22246433225
:1007600096230498294601F02BFB0546069E42205D
:100770002554002E01D104206070EDB26619304678
:1007800043300FA9202203F08EFA28466330354902
:10079000334B5852079801281AD12A462E4DFE3560
:1007A000322A50D82046C830433421461C4603F034
:1007B0007AFAC820002131545B20C000215C10224D
:1007C0000A43225418A803F0FBF9092005033AE074
:1007D000002F2BD04525585D002809D019464131FE
:1007E00017A804221E4603F07DFA334600281DD0C8
:1007F00000265E551846413017A904221F4603F013
:1008000052FA179B2046C83009251A4A7A442946CD
:1008100003F094FFD02026545B20C000395C1022E6
:100820000A433A5403F0F6F92D030CE009200503BE
:100830000898002807D05B20C000195C10220A43EA
:100840001A5403F0F1F9284623B0F0BD58200020D7
:10085000AC210020081D0020826900000C18002037
:1008600080180020D6020000FA950000BC95000018
:1008700030950000F4760000F0B581B07A21C943CC
:100880000B460B336922002800D01A460C4C0D4D44
:100890002B5B9B1E002800D103469FB20A4EF255E7
:1008A0009A1C2A530024002800D02146581C80B2EC
:1008B000315491B2202003F06BFC01B0F0BDC04672
:1008C000D60200008018002058200020F0B59FB00C
:1008D0000546EA48047987786B20060204F012F98D
:1008E000002800D1B8E108940024002F0ED0FF2F7B
:1008F0000CD0802F00D0AFE10A950898001F089017
:10090000C0B2DE490818401D069001E00A95069421
:10091000DB49DC4DB12080000990285C002813D011
:10092000685C002810D1D54840790124FD21FD28BC
:100930000AD34A1CD4B205220023A04200D01A4692
:100940000324884200D014460BAE304607F086F9E7
:10095000B085000411D00BA800218185159804F002
:1009600097FBC948295C6F221602002900D150E18B
:1009700000212954C5482E5A4BE10BA804F088FBEE
:100980001590287DC24E092800D03FE10221C843BE
:10099000801CC0B2874255D1687F002800D11EE17B
:1009A000C248285C002800D130E1002198220A9832
:1009B00003F08FF9B1484079002800D10FE10A9E79
:1009C00034466D34AD48411D2922204603F06BF9B1
:1009D0000127002220463946049201F055FAB84812
:1009E000784404F079F880794121C00704D1B048F7
:1009F000083001F04FF82121AD4808303246593215
:100A000001F0BCF9AB48281858361522314603F0DE
:100A10004AF9A64804992954A2482F542046394639
:100A200001F06AFA002800D1D9E09D480421295438
:100A30005B20C000295C10220A432A54204603F0A0
:100A4000FDF8CCE007919348285C00280DD10021E7
:100A50006846016041600898C0B2031B87480019CE
:100A6000421D2846483004F0CDF9687F00282DD07B
:100A7000894C285B0899CFB2C119FB36C82900D927
:100A8000C4E02818854940187C49491D3A4603F0BE
:100A90000AF9285BC019285300F00EFA002804D088
:100AA0005B20C000285CC006F6D5232040012858F2
:100AB00000280BD15B20C100695CCA0606D4784AC5
:100AC0000323AB5410221143C00029546B4C27461A
:100AD000A078002870D0284620300422069903F020
:100AE000E2F820246846446017A903910160292098
:100AF000C0002E187A1D0898C0B2031D0127304689
:100B0000394604F07FF9304604F09CF96846039AB0
:100B100014C03046059739462746234604F072F93B
:100B20000998285C00281CD05A48285C002818D155
:100B300068463F21C9006C1890C02E4648360121F6
:100B4000029100233046224604F05CF9304604F05E
:100B500079F9684690C03046029922463B4604F037
:100B600051F9687F00284A4F3FD04E48285C002842
:100B700004D1002198220A9803F0ABF82820285CC1
:100B80000A9C60702A20285CA0702046233008212F
:100B900004F02AF94448079929520020374908707F
:100BA0004870E11C687F002828D017AB2022084637
:100BB000194603F078F812E00026684606604660A1
:100BC0002920C00028187A1D0899CBB2314604F0BC
:100BD00019F9354801212952294829543E701598A0
:100BE00004F056FA0920060336E02F4807992952E7
:100BF00000202249487008700A98C11C17A82022BA
:100C000001F04EF800283E46224A28D0159804F0FC
:100C10003FFA254C0020285328751F4FEA5B1F48D8
:100C20002918164803F03FF8E85B285304F024FA2B
:100C30000BA9884202D1159804F02AFA184801211C
:100C40002954154800242C521B48281808222146F4
:100C500003F03FF819482C5430461FB0F0BD0998F6
:100C6000295C0A20002905D0A95C002902D1059839
:100C7000A8540020287509200603D7E75820002033
:100C80009203000080180020D9020000DA02000060
:100C900085690000C60200005C04000093030000A8
:100CA0006C0400008F030000D602000091030000D6
:100CB0000C1800207A0300006D0400007504000089
:100CC0009C91000070B5172040011D4D2818FFF7BA
:100CD000FDFD04465B20C600A85DC00626D5194868
:100CE000295CFF2911D004290CD0032910D125201B
:100CF0002421695C00291BD0285C002818D002F050
:100D00004DFF07E00121295410E002F011FF01E03E
:100D100002F020FF002809D10E4800212952A85DC9
:100D2000EF220240AA552975D520C401204670BD86
:100D300005480649295206490120685402F0E6FF99
:100D4000801800206C040000DA0200000267000036
:100D5000D9020000D6020000F0B581B000282ED0E4
:100D6000232042014A4CA0584A4FE15D022901D19B
:100D7000401EA05009210D030028009232D04648A1
:100D800020188D21CE00A2598118444FE35B9A1A96
:100D900002F089FFA05BE15B081AE0533D4F5B2046
:100DA000C600A05DEF210140A15500F085F8A25DCD
:100DB00010211140002809D00029F6D008E034485D
:100DC000002202753349405C354D37E0002909D0D7
:100DD00002F0C0FE01460120002956D100202075F6
:100DE0002F4DFB35E05D022811D100996158002993
:100DF0000DD10320E05502F0D1FE0146012000296B
:100E000043D10021E155264DFB35084612E0FF286D
:100E100001D003280FD100216177B1218900625CE4
:100E20000A21002A06D01F4AA35C002B02D101210F
:100E3000A154002121751C49615A8A1E91B22B0AC6
:100E40001A4C6354911C184E114FB953521C92B254
:100E5000A554032805D0FF2803D0092000038542AC
:100E60000ED00C48012139540C4800243C52104843
:100E700038180822214602F02CFF0E483C54B95B7A
:100E800089B2202003F084F9002001B0F0BDC046F3
:100E9000801800206C040000930300005C04000034
:100EA00085690000C6020000D6020000582000201C
:100EB0006D04000075040000F0B5A3B08D20C300E0
:100EC000BA4D0022EA50BA4C285D022821D00128F0
:100ED00000D054E1C64FEA51B648295A002900D142
:100EE0003BE1B648285C0126FD2820D2E8510221CA
:100EF0002955232149016850B04828188119AD4C63
:100F00002A5B921B02F0CFFE285B801B2853012234
:100F100023E1A84C295B092900D21EE11746A64807
:100F2000285CFD22FC2813D8069309222DE0FE2818
:100F300015D0FD2800D022E1032900D20DE1E520E3
:100F40008000285CAB49695C090208180326CDE7DC
:100F5000904200D013E10B290DD23A46FDE005295D
:100F600000D2FAE0E5208000281800210A4600F0AF
:100F7000A6FE0526BAE70693E72080002818002180
:100F80000A4600F09CFE295B0B2216188E423A4658
:100F900000D9E2E003F0CEFD002800D1EFE000210F
:100FA00086486A18125C491C002A02D10729F8D920
:100FB0000BE0291821AC0822204600F05CFF804895
:100FC00028180146224601F07BF804967A482C182E
:100FD000204600F023FE0390204600F0C5FD02905D
:100FE000204600F0F9FD0646204600F01DFE204692
:100FF00000F038FE002E00D1C1E072480068406960
:1010000003F06AFD01467048285C6A4610606F482C
:101010002B180DA800242246019303F03FFE764DC5
:101020007D44287801210591002822D000262F46F2
:10103000384603F051FD01460DA806F029FE0028B0
:101040000ED0384603F048FD06F066FE3018461C08
:101050005F480640AF19A85D00240028E8D108E0E9
:101060002420524B195C002900D08EE00121195434
:10107000059C624D7D442878002817D000262F4615
:10108000384603F029FD01460DA806F001FE0028B0
:1010900019D0384603F020FD06F03EFE3018461CFD
:1010A0004B480640AF19A85D0028E9D1002C3F4D00
:1010B000049E10D14749012068544749891C474A7A
:1010C000A95202F023FE2520384D295C0029049EF8
:1010D00064D10121295403F015FD002852D0039852
:1010E000002831D13E48285C00282DD002980028E5
:1010F00022D0B1208000285C002825D007AC14271E
:1011000067700020207037482918A01C3A4602F06A
:10111000CAFD16212046224600F030FE01982146E5
:101120003A4602F0DFFD00280ED12648006824214F
:10113000405C400714D422E02A4829181422019860
:1011400002F0D0FD00280BD006982E505B20C00086
:10115000295C10220A432A54059A104623B0F0BD98
:101160002148295C00290AD101212954232040016A
:101170002958491E2950002E059AEED0BCE60120C0
:1011800002F0C4FD154819490AE0124901205854DB
:101190001149491C114A995202F0B8FD0F480E49F5
:1011A00029520C490120685402F0B0FD801800203B
:1011B0006C0400005C0400009B030000930300002B
:1011C0006D040000081D00209D0300009E03000028
:1011D000FFFF0000D902000001670000DA020000F2
:1011E0008F0300007B03000075040000016B00000A
:1011F0006404000095030000FC800000BD85000031
:10120000F0B583B042480579494C7C44204603F050
:1012100063FC808800F04BFF204603F05DFC3D4EF0
:10122000F41C8088C0B204286ED802950127394684
:1012300081401620014267D0354CA0786B210D0209
:10124000802808D0002842D16D218900324A03232A
:10125000535400211175E1780F292BDC002901D0AE
:10126000022934D1002839D1881E00210A1A4241AE
:10127000294B587F002809D10C46019203F08AFEC1
:10128000019A2146244B002834463DD02448195465
:1012900022481954B12080001A545F779984D98369
:1012A0002048181819221C4602F013FD1E48275426
:1012B000174C13E0102902D080290FD007E0B1208D
:1012C000800015490A5C4B7F1343002B01D02C464C
:1012D0001AE0124A00238B5401220A5413480E4983
:1012E000029A0A545920C000621D0A506C1C03F077
:1012F00009FC002808D003F01DFC002804D00220BF
:1013000000F0A4FF09200403204603B0F0BDC0464E
:10131000582000208269000080180020C6020000CA
:10132000770400007A03000091030000C702000068
:1013300072890000F0B5FFB084B0BC4C7C442046FC
:1013400003F0CAFB808800F0B2FE204603F0C4FB25
:101350008088C0B2AC4F042826D8012181401620D5
:10136000014221D0A94E6B200502B078002804D09C
:10137000F078002801D028464AE067200002317941
:10138000072945D317AC204606F068FCA085000469
:101390000CD017A800218185219803F079FE6F20D9
:1013A000000249A9088026E0384631E017A803F07A
:1013B0006FFE219003F0A6FB002816D003F0BAFBC5
:1013C000002812D09249087D0A280BD19248085C67
:1013D000002803D08F48085C002803D070790B28C0
:1013E00019D3FB3749A8078002E0681C49A9088087
:1013F000219803F04DFE86480021017503F03CFE64
:1014000017A9884202D1219803F042FE49A800881A
:101410007FB004B0F0BD751D3EA82922294609926F
:1014200002F041FC70798000401C295C2818784D3E
:101430000C904018401C01210024224600F03FFC83
:1014400082902946203182A8042200F029FC00283D
:10145000CED10998C0002D182846069503F0F2FC5D
:101460003F2005906A49085C113016AA1070684642
:101470000460446001230B932846214603F0C2FC1C
:10148000634A0598135C6846046044602D32284620
:10149000214603F0B7FC684604604460644A7A441D
:1014A00011232846214603F0ADFC15AA2020079001
:1014B0001070684604604460284621460B9B03F088
:1014C000A1FC684604604460544851490A18284603
:1014D0002146079D2B4603F095FC684645600DADFF
:1014E000056006980B992A46234603F08BFC069C60
:1014F000204603F0A7FC68460560079B4360204632
:101500000B992A461C4603F07DFCFEF7D7FD49AB3C
:101510000C98294625462246FEF7E4FD002800D116
:1015200066E700790A904348784403F0D5FA807959
:101530004007374C15D40A9A39480068415D0229A2
:1015400002D08169002907D0412A00D049E780698B
:10155000000282180A9204E0012A0B980A9000D037
:101560003FE71720400121184AA8982202F09BFB70
:101570003EA800210A4600F087FC829980AF3846D9
:1015800000F0C1FB381D0A9900F0BDFB68464560BC
:1015900021462C4678AD056008464830012104916B
:1015A00008233A4603F02EFC23AF384603F04AFCEA
:1015B0006846446070A9089101603846049F394626
:1015C0002A46234603F01EFC1B48784403F084FAA5
:1015D00080798007C00F6946FF2252320E604A6050
:1015E000886010483946089A234600F021FD70783B
:1015F000C11C0D4A064B99520921090349AA1180C1
:1016000030180A998170F9E6856900005820002099
:10161000801800207704000076040000E302000038
:10162000081D002058180020D60200004088000045
:101630000A6B000054860000B28500006D20000295
:1016400070476D20000270476D2000027047000057
:10165000F0B58BB009AE0021062730463A4602F0BD
:1016600038FB0A200A990143317101243046214692
:1016700000F018FDB01C214600F014FD114D7D4412
:10168000284603F029FA801C31463A4603F09EFBB7
:101690006E4620273046394603F0A6FB284603F065
:1016A0001BFA083031463A4603F090FB08AE34701E
:1016B000284603F011FA401C3146224603F086FB0F
:1016C0000BB0F0BDFE8400006D20000270476D205D
:1016D00000027047F0B5B3B01C4615460F460690A1
:1016E00009A8A62106F0D4F90026F043782F6FD878
:1016F0000090002F07D000260698805D002802D1B8
:10170000761CBE42F8D301950394B91B8A20484346
:10171000642106F03BF803460296BE42059026D2AD
:101720001946029A049706980792805C491E089110
:101730001F4609AEF15D09020D183A2428462146DC
:1017400006F0AEF84443291BF155393508998F420C
:1017500001D8732D04D3791E002F0F46E9DC00E079
:101760003946079A521C049FBA42059BDBD10020E0
:10177000039A029F09A9095C002904D1451C9842DB
:101780002846F7D300E00546F818401C441B1068B3
:10179000A04201D200981AE00E4E7E4431780198A2
:1017A0003A4602F096FA059B00209D4201D93C463C
:1017B0000CE002460198C01909A9495D715C0170ED
:1017C000401C691C9D420D46F6D31046039A1460D6
:1017D00033B0F0BDD4670000F0B593B0039060481B
:1017E0000068446A08A82A2106F052F90122144030
:1017F0000D210F20002C00D00146019108200290FD
:101800000620002C00D0029013200023059203999B
:101810000493C95C069100260721891B17468F4057
:1018200006990F40C1B214290ED81522541A4A0045
:1018300008AB9B181D88EA1C042D00D82A461A8084
:10184000641E9B1C002CF5D1490008AA515A421E67
:10185000072900D802460792D2B2132A14D81420BE
:10186000801A510008AA5418535A65880122002191
:10187000072D00D80A465907090F89182180401EF4
:10188000A41C00282B46F0D1002F059A104600D149
:10189000384612994907090F081808A90885761CC7
:1018A000082E07990846B7D1049B5B1C082B0846F5
:1018B000ADD100222B4C13461046019ED1B24900F7
:1018C00008AD695A000602D10020002907D0B720D0
:1018D00080002058DDB2303141555B1C0120521C84
:1018E000D5B2AE42EAD8180605D1B72080002058FC
:1018F000302101700123002107910298CFB2B84234
:101900000E4629D97F197F0008A8C05B761C0028E5
:1019100004D1F7B20298B842F4D81DE00798000647
:1019200008D1B72080002058DEB22E2787555B1CD7
:1019300001200790B72080002058D6B2760008AF6B
:10194000BE5D3036DFB2C6555B1C521C491CC8B2A6
:10195000029E86423046D1D8D8B213B0F0BDC04600
:10196000081D002080180020F0B583B09120C2002F
:101970003D4D00262846314602F0ABF92846314657
:1019800000F090FB394801242C5439482E52394834
:1019900028180822314602F09CF937482E5438485E
:1019A000784403F099F84078012801D0FFF750FE01
:1019B0003448784403F090F84078002833D02F4E14
:1019C0003068018829854188698501792C22A954CC
:1019D000806803F081F806F09FF93F27E8553068EA
:1019E000806803F079F80146EA5D28462D3002F060
:1019F0005AF93068006903F06FF806F08DF9402756
:101A0000E8553068006903F067F80146EA5D3A3549
:101A1000284602F048F91C48784403F05DF88088B5
:101A200000F045FB02E0FF2000F03CF81748784446
:101A300003F052F80078002814D102AD2C7001AEEA
:101A40003470134F7F44384603F046F8293031464E
:101A5000224603F0BBF9384603F03EF829462246F9
:101A600003F0B4F903B0F0BD801800206C0400004E
:101A70005C0400006D04000075040000081D0020D7
:101A8000DC810000CA810000648100004E810000FA
:101A9000388100004021415C01220A40911C017004
:101AA0007047000010B582B0014601AC204600F03E
:101AB000F9FA0548784403F00FF8001D0222214688
:101AC00003F084F902B010BDC880000070B5044670
:101AD0001E4E30684169002911D01D497944032206
:101AE000204602F0FFF8012500282CD0194979443E
:101AF0000322204602F0F6F8002824D03068202186
:101B0000405C13280CD1144979440422204602F089
:101B1000E9F8002816D118341049794428220BE03E
:101B20000F4979440422204602F0DCF8002809D14C
:101B300018340C4979440222204602F0D3F80125DA
:101B4000002800D00025284670BDC046081D002092
:101B50005D6400004E6400003764000029640000EA
:101B6000E3630000D5630000B0B504461548006883
:101B70002021405C132810D11349794403222046C8
:101B800002F0B0F800281AD11734104979442722FE
:101B9000204602F0A7F801250FE00D497944032201
:101BA000204602F09FF8002809D1173409497944EA
:101BB000012520462A4602F095F8002800D000258D
:101BC0002846B0BD081D0020956300008663000014
:101BD0006F63000060630000B0B504460C48006805
:101BE0004069002810D00B4979440322204602F0B6
:101BF00079F80125002808D00749794403222046B6
:101C000002F070F8002800D000252846B0BDC0467C
:101C1000081D0020516300004263000041786A39CA
:101C20000020401A48417047B0B50546FFF74EFF07
:101C30000024002814D12846FFF796FF00280FD172
:101C400068786A280CD028783E21C9432A31CAB264
:101C5000C121904204D2285C401A00210C1A444150
:101C60002046B0BDB0B50546FFF730FF0024002880
:101C700014D12846FFF778FF00280FD168786A282A
:101C80000CD028783D21C9432931CAB2C2219042E3
:101C900004D2285C401A00210C1A44412046B0BDF1
:101CA00070B50023002A08D00023521E94B2055DAF
:101CB0000E5D6E403343002CF7D1D8B270BDF0B545
:101CC00081B000920722D3430822002900D01A468F
:101CD0001824002900D10C4600252946465D7F279F
:101CE0003740002D334600D13B46009F002F00D0E7
:101CF0001E46E3B29E4071189C186D1C042DEDD158
:101D0000084601B0F0BD01700A0A42700A0C8270E8
:101D1000090EC1707047000070B58CB00C460546C6
:101D20006E46304605F09AFFB085000411D1684632
:101D300003F0AEF90A90212020220E4B294603F031
:101D4000A1F8002C05D021200B490A4A012303F0F9
:101D5000A9F803F091F96946884202D10A9803F084
:101D600097F96846808D002801D10CB070BD01F054
:101D7000CDFFC046581800200C180020F0B5A9B0BF
:101D800003AB07C30EAD284603F05CF82026684677
:101D9000466006AF0760012428462146039A049B4B
:101DA00003F030F8284603F041F86846059942C030
:101DB000284621463A46334603F024F829B0F0BDC0
:101DC000F0B5B1B01E4615460346369C02270120E9
:101DD000FF2C00D80746379800280595049606D0B2
:101DE0003A4614322AA8194601F05DFF0DE02AA8F0
:101DF000C2191846FFF7C2FF200A04D02AA844706F
:101E0000210A017001E02AA8047007AD284603F0FA
:101E100019F820266846466022AC04603B4614331D
:101E2000012102912AAA0392284602F0EBFF2846DC
:101E300003F008F8684650C0284602992246334607
:101E400002F0E0FF039DE81914300422214601F05E
:101E50002AFF04980690183706AB28463946059A9B
:101E6000FFF738FC002803DB06A8008831B0F0BD7E
:101E7000012001F04BFF002A05D0491E8B5C037046
:101E8000401C521EFAD17047F0B595B005780B2D65
:101E90002FD216460291002D13D0401C002118228B
:101EA00000273B46C45DD2B29440E3187F1C083A39
:101EB000042FF7D18A000BACA350491C001DA94286
:101EC000EDD102F003FB6846066021200BA903AEAA
:101ED0002A46334603F040F830460299FFF71CFFCC
:101EE00002F0F4FA00212022304601F0F2FE15B093
:101EF000F0BD022001F00AFFF0B58DB00246007877
:101F00000B2837D20124002831D002940191521CB1
:101F10000024182500273E46D35DEDB2AB409E1944
:101F20007F1C083D042FF7D1A30003ADEE50641CC5
:101F3000121D8442EDD10528029C18D10124E2072C
:101F4000039B53402C2B03D0542B01D0312B0ED1AB
:101F50006432059991420ADC06990198814206D1C2
:101F6000064A079B01240021934200D80C462046D4
:101F70000DB0F0BD022001F0C9FEC04650C3000004
:101F8000F0B585B0049202780B2A4BD20F4620217F
:101F900039700021002A3DD00499891E0191461C08
:101FA0000023012102920393182000221546B35CFE
:101FB000C0B283405D19521C0838042AF7D1781842
:101FC000049A511A0122D2072B469343174A7A44A6
:101FD00002F0B4FB3C463846049905F00BFFC1B251
:101FE000361D019A91421ADA002D039B01DB274628
:101FF00003E0272227466254401CC1B22F227A54A4
:10200000401CC1B2002078545B1CD8B2029A9042A6
:10201000C9D3491E00207854C8B205B0F0BD0320D2
:1020200001F074FE022001F071FEC0469D5F0000C9
:10203000F0B587B01E4605920F46044602F046FAF8
:102040000D980C9D002F0DD0059B0E990022069235
:1020500006AF6A46166055609060D76000290CD0C4
:102060000F490BE069460E604D6088600121032234
:102070002046059B02F03EFF0BE008490322204664
:1020800002F020FF3878C00703D0287801210143EF
:10209000297002F01BFA07B0F0BDC0460104000031
:1020A00001060000CA43120251180180704780B532
:1020B000FF218143000A814201D002F07DFE80BDF4
:1020C000F0B5002307241E46155D0F5DF61975193E
:1020D00005550126FF2D00D81E46671E002C3C46E4
:1020E000F2D101200021FF2D00D80846F0BDF0B547
:1020F00081B0002607240096155D0F5D330604D0DD
:10210000AF4204D97F1E002303E0009B01E0FF37AC
:1021100033467E1B0655BFB20126AF4200D31E4692
:10212000631E002C1C46E7D1F0B201B0F0BD0000E8
:1021300070B582B004466D26B000114D285CC10711
:102140000DD05920C0002A58002168460160416026
:1021500028464830234602F055FEB000285C800730
:102160000CD55920C0002A58002168460160416002
:102170002920C0002818234602F044FE02B070BD9A
:1021800080180020F0B583B02E4D2F4E705D0028D2
:1021900052D05920C700F05904780320C043401C96
:1021A000C0B2FC21844208D2012528460E46FFF722
:1021B000BFFF3246244ED21C33E0FE2C02911AD0CF
:1021C000FD2C3CD10120FFF7B3FFF059411CF15128
:1021D000715D491E7155C9B201292DD9417801910E
:1021E000847802252846FFF7A3FF200201994418AE
:1021F000029A921C15E00120FFF79AFFF059401C4B
:10220000F051715D491E7155C9B2032914D90021DD
:102210000A46FFF754FD044604252846FFF788FFC9
:10222000029A08480146305C80187054F0594019F1
:10223000F051204603B0F0BD012001F067FD0220FF
:1022400001F064FDC702000080180020F0B5A9B0BD
:102250000646F948784402F03FFC84791DAD2846D3
:1022600005F0FCFCA8852107C90F0B9185B2002D54
:1022700000D022E31DA802F00BFF279002F042FCE1
:10228000002800D116E302F055FC002800D111E32C
:1022900015A8C01D0A90E94CE94F0C96BEE107282D
:1022A00000D0BBE12569002D00D1B5E1E05D00283B
:1022B00000D0D7E0F0E2B1208000205C01270028A8
:1022C00000D182E0F6E2B1229200A25C002A00D1A5
:1022D000F0E2401EDA4FE0554A1CA251C0B223285A
:1022E00000D8E7E2D748205C002827D06D20850081
:1022F000012767552420FFF71BFF00206055A159D7
:102300002431A151CE4AA05C2438A054C0B2072881
:1023100000D8CFE2AF20800020180822029201F0FE
:10232000C2FC0298FFF704FF6755A0590830A0517E
:10233000C3480146205C0838605446E000216846E6
:10234000016041603720C000201824252B4602F090
:1023500059FD2846FFF7ECFEA1592431A151E05D5B
:102360002438E055C0B2072800D8A3E215A80822F7
:10237000FFF781FD0020014602460A9B5B5C651861
:102380002F7FD219D3182B770122FF2B00D80246BA
:10239000491E0D460835F0D1FF2B00D98AE26D2089
:1023A0008500605DFD21014061550820FFF7C0FEFA
:1023B000A0590830A051A2480146205C083860545A
:1023C000605D02210143615501276D208000215C81
:1023D000FD220A4022540C9EFFF7D4FE206115AA6C
:1023E000002111706846016041602920C00020185A
:1023F000012302F007FDB1208000205C38430B99D7
:10240000002907D12169002904D0022E02D100063B
:1024100000D14FE202202075894FE05D002800D1F5
:102420003AE22169012919D15920C5006059007883
:10243000AE2802D10B99002904D0AE380021091A28
:102440004141E1770120FFF773FE6059401C605164
:10245000E05D401EE0552169491E2161002916D02A
:102460004D1EC0B2854200D30546002D00D113E2B7
:10247000E8B2FFF75DFE5920C000215849192150EC
:10248000E05D401BE0552069401B2061C6E0022E44
:1024900016D16D218900625C02231343635469499C
:1024A000615C00290CD00021684601604160AF20CA
:1024B0008000221820464830082302F0A3FCE05D8B
:1024C000C0B2032800D8F5E1B1208000205C0028CC
:1024D0000FD05C48205C00280BD15920C000225846
:1024E000002168460160416020464830042302F024
:1024F00089FC0420FFF71CFE5920C0002158091D4B
:102500002150E05D001FE05501202075A068401EAD
:10251000A060E068401CE06080E0EF48215CB122F0
:102520009000205C00284FD000294DD1202568461E
:10253000456015AE06603720C000271807970121B7
:1025400003910023059338460992324602F05AFC63
:10255000384602F077FC68463246069606602E46FC
:10256000049545603846039D2946334602F04AFCEF
:10257000684646600DAF0760264648363046294615
:102580003A46059B02F03EFC304602F05BFC684692
:102590000760049D456030460C9E03993A462B46E1
:1025A00002F030FC079806992A4601F07CFB3B209C
:1025B000C00020183946C74F2A4601F074FBC648B0
:1025C000215C09988000205C00281CD000291AD0CA
:1025D00000216846016041603F20C000221820466B
:1025E0004830202302F00EFC0A20207516E0052852
:1025F00014D1E05D002800D14EE12569002D00D006
:1026000030E7042081E709212175002806D0204603
:10261000483002F017FC01E008202075217D00E021
:102620002175C8B204280FDC02286EDD03282FD0E4
:102630000428F3D1A06839E0287900008018002030
:10264000C7020000C6020000062800DD1FE1CED14F
:10265000E05D002800D11FE1032800D82AE1042012
:10266000FFF766FD5920C0002158091D2150E05D8B
:10267000001FE05508210006D2D06D208500002003
:102680006055FFF77FFD0121615520610721C7E7F4
:10269000022E00D141E7E05D002800D1FCE0FFF709
:1026A00071FD0021A060E160042121750621002850
:1026B000B6D0E05D002800D1EEE0072800D8F9E0B0
:1026C000012E11D12D2000012058E16881420BD14B
:1026D0005920C000215820461530082201F0E3FAA5
:1026E000B3208000012121540820FFF721FD59204B
:1026F000C000215808312150E05D0838E055FFF74F
:1027000041FD20610520207573E7002806D00128CF
:1027100002D0022882D180E6A06886E00025A5606C
:10272000E5602561204615300822294601F0D1FADE
:1027300026464836304602F085FB2920C000201886
:1027400002F080FBB1208000205C002831D06D2099
:102750008700E5556048205C002822D06846056067
:1027600045605720C000221804233046294602F055
:1027700049FB6846056045603720C00022182027C5
:10278000304629463B4602F03DFB68460560456001
:102790003B20C0002218304629463B4602F032FB5F
:1027A00006E03720C000201802F04CFB0220E05564
:1027B000484FE05D03287DD95920C600A159572014
:1027C000C0000890201804252A4601F06CFA28461B
:1027D000FFF7AEFCA059001DA051E05D001FE055C1
:1027E0003E4909682422895C890717D52C21615C40
:1027F000022905D0042911D10899615C01290DD85D
:10280000C0B2032856D90420FFF792FCA059001D3E
:10281000A05130480146205C001F6054FFF7B2FC15
:10282000A060012121750C9E2A4F002819D0E05D7F
:10283000002831D00127022E16D0012E00D0CBE582
:10284000232837D92420FFF773FC5920C0002158D2
:10285000243121501F480146205C24386054012750
:10286000BAE503202075D9E6012823D95921CE00E5
:10287000A1590A78022A00D125E5012A00D11AE5DA
:10288000002A17D1B1208000205C002717E50146FF
:102890000839032900D302E502F0EEFB1DA98842A6
:1028A00002D1279802F0F4FB1DA8808D00280DD1DD
:1028B00029B0F0BD012001F029FA1DA8002484856B
:1028C000279802F0E5FB02480475284601F01EFA3D
:1028D00080180020C7020000C6020000081D00206A
:1028E000F0B581B00346CA06D0170090174A0240DF
:1028F0000C07E617164C34405D01654055408A06CA
:10290000D417144A22406A404D06ED171248284059
:1029100050400A06D717114A3A40424098203040AA
:10292000DB0E4901C918C9B241407920009B18400B
:102930004840F32121404140AE20284048401E211C
:1029400039404140104601B0F0BDC046E2996DB734
:10295000618EBCF2C4B35F3EA8E2AB2E70E4434F7D
:10296000F0B581B015460E460746047801200021D7
:102970000090FFF7B5FF002C12D07F1C1F222240D1
:1029800042403C781046FFF7ABFF7F1C002CF5D18E
:1029900006E0FFF7A5FF0246307850406D1E761C1A
:1029A000002DF6D10824FFF79BFF641EFBD1009A8F
:1029B000504001B0F0BD0000F0B581B014460A46A9
:1029C00001460B487844FFF7CBFF05460E46232708
:1029D000284631463A4605F04FF81F210140217044
:1029E000781F641C002F0746F2D101B0F0BDC0462D
:1029F00058560000F0B599B01D46034600201790C8
:102A00001690107014296FD11E990020002904D04F
:102A1000012969D10192082000E001920CAF3870C1
:102A2000781C1422194601F03EF915210026324681
:102A300030463B780002C018134608337F1C491EFD
:102A40000224E443A2420EDB0D3213460A3B044645
:102A5000DC401F23234002ACA355521F761C092AD9
:102A6000F3DC521F00E01A460029E2D1002A019F40
:102A700007D00521891A88401F21014002A88155ED
:102A8000761C02A816AA3146FFF796FF0020002EFA
:102A9000394611D002A801780023144A7A4420292B
:102AA00020D2581CAB421DD202ACE45C145DFC5435
:102AB000B0420346F3D3391816AA137800220C4EFD
:102AC0007E44202B0ED28418641CAC420AD816AC6B
:102AD000A45C345D8C54521C082AF2D300238B541E
:102AE000801801E00020387019B0F0BD8C5500004E
:102AF0006855000080B50948002101700848016050
:102B000008480078002801D104F0A0FD0649794466
:102B10000020024604F012F980BDC0468C1D002042
:102B2000901E0020901D0020C659000080B582B084
:102B300001900648784401F0CFFF293001A9012215
:102B400002F044F9FFF7D6FF02B080BD48700000E4
:102B500001460020022903D8880002497944085818
:102B60007047C046D458000080B5012805D0002821
:102B700007D10020FFF7DAFF80BD0120FFF7D6FF65
:102B800080BD002003497944034A7A4404F058FD8B
:102B900080BDC04613000000270000000146002051
:102BA000012903D888000249794408587047C04673
:102BB0009458000080B5002802D0FFF79BFF80BD2D
:102BC0000648784401F088FF2921435C002004492D
:102BD0007944044A7A4404F015FD80BDBA6F0000C0
:102BE0007DFFFFFF91FFFFFF80B50020034979447F
:102BF000034A7A4404F024FD80BDC046ABFFFFFFCA
:102C0000BFFFFFFF80B5FF2002F002FA80BD80B554
:102C10000120FEF7A1F8002800D080BDFFF76AFF71
:102C200080BD80B50020FEF797F8002800D080BD59
:102C3000FFF760FF80BD80B50120FEF78DF800280A
:102C400000D080BDFFF756FF80BD80B50020FEF7A5
:102C500083F8002800D080BDFFF74CFF80BD80B511
:102C60000120FEF779F8002800D080BDFFF742FF71
:102C700080BD80B50020FEF76FF8002800D080BD31
:102C8000FFF738FF80BD80B50020FDF7F5FDFFF7A9
:102C900031FF80BD80B50120FDF7EEFDFFF72AFF73
:102CA00080BD80B50020FDF7E7FDFFF723FF80BD65
:102CB00080B50120FDF7E0FDFFF71CFF80BD80B56A
:102CC0000020FDF7D9FDFFF715FF80BD80B501207D
:102CD000FDF7D2FDFFF70EFF80BD80B50020FDF7A8
:102CE000CBFDFFF707FF80BD80B50020FDF7C4FDD9
:102CF000FFF700FF80BD80B50120FDF7BDFDFFF7A8
:102D0000F9FE80BD80B50178490601D001F0A6F931
:102D100080BD0000B0B505460720284000240128EA
:102D200014D0022814D1002909D00B4802F07CF9F4
:102D300068B200280ADA02F03FF8002406E0FF211A
:102D400052310548002202F087F904462046B0BD02
:102D5000022000F0DBFFC04658200020F0B581B013
:102D6000D84D28780C2810DD0D286CD00E2800D105
:102D7000B8E015280FD1D448807901280BD1A87963
:102D8000000708D4102000F0C1FF052800D101E1A0
:102D90000C2800D17EE2F94C0027676001202070EA
:102DA000204602F003F9042002F07EF960606928F1
:102DB00000D04DE101F0F8F801F0F8F8BE25F04E32
:102DC0007753042002F070F96060C0243159002963
:102DD00000D15FE2002800D15CE2972800D159E2DF
:102DE000705BAA27C421715C80B2884200D351E293
:102DF00002F026F9002800D04CE202F0A1F8B84217
:102E000004D102F0C7F8B84200D043E23059715BF8
:102E100049014018CC217158002902D08847002868
:102E20000AD0012803D13059715B4901401801785B
:102E3000490601D001F012F9705B401C7053315902
:102E40000029CFD126E2CD4C0027676001202070F9
:102E5000204602F0ABF8042002F026F9606000285A
:102E600000D117E2692800D18CE1972800D111E246
:102E7000C025C34C6059002800D103E2BE26A05BE8
:102E8000AA27C421615C80B2884200D3FAE102F033
:102E9000D7F8002800D0F5E102F052F8B84204D18A
:102EA00002F078F8B84200D0ECE16059A15B49012A
:102EB0004018CC216158002902D0884700280AD048
:102EC000012803D16059A15B4901401801784906E6
:102ED00001D001F0C3F8A05B401CA0536159002948
:102EE000CFD1CFE1A54D00276F6001202870284683
:102EF00002F05CF8042002F0D7F86860692800D07E
:102F0000E4E001F051F801F051F8BE249C4E375333
:102F1000042002F0C9F86860C0257159002900D169
:102F2000B8E1002800D1B5E1972800D1B2E1305BCB
:102F3000AA27C421715C80B2884200D3AAE102F0C2
:102F40007FF8002800D0A5E101F0FAFFB84204D1D3
:102F500002F020F8B84200D09CE17059315B490181
:102F60004018CC217158002902D0884700280AD087
:102F7000012803D17059315B490140180178490695
:102F800001D001F06BF8305B401C305371590029BF
:102F9000CFD17FE1F44C00276760012020702046EC
:102FA00002F004F8042002F07FF86060002800D1ED
:102FB00070E1972800D16DE1692800D025E100F08B
:102FC000F3FF00F0F3FFBE25E84E7753042002F034
:102FD0006BF86060C0243159002900D15AE1002803
:102FE00000D157E1972800D154E1705BAA27C42192
:102FF000715C80B2884200D34CE102F021F80028D5
:1030000000D047E101F09CFFB84204D101F0C2FFBB
:10301000B84200D03EE13059715B49014018CC21E3
:103020007158002902D0884700280AD0012803D10E
:103030003059715B490140180178490601D001F00F
:103040000DF8705B401C705331590029CFD121E13C
:10305000C025C64C6059002800D113E1BE26A05BF4
:10306000AA27C421615C80B2884200D30AE101F042
:10307000E7FF002800D005E101F062FFB84204D16B
:1030800001F088FFB84200D0FCE06059A15B490123
:103090004018CC216158002902D0884700280AD066
:1030A000012803D16059A15B490140180178490604
:1030B00001D000F0D3FFA05B401CA0536159002950
:1030C000CFD1DFE0941E0020AC2100200446D820A0
:1030D000A64E3158002911D0642264290B4600D332
:1030E0001346C91A315009D1D4217158002900D191
:1030F000D9E0DC22B258325000208847002C00D1A1
:10310000C8E0972C00D1C5E0C024305900282FD04A
:10311000BE25705BAA27C421715C80B2884227D289
:1031200001F08EFF002823D101F00AFFB84203D13D
:1031300001F030FFB8421BD13059715B4901401892
:10314000CC217158002902D0884700280AD00128D4
:1031500003D13059715B490140180178490601D00B
:1031600000F07CFF705B401C705331590029D2D1B4
:10317000C420305CBE21715A88E0C046C01F0020C8
:10318000901D002000F010FF00F010FFBE25774ECC
:103190007753042001F088FF6060C0243159002972
:1031A00078D0002876D0972874D0705BAA27C421E5
:1031B000715C80B288426DD201F042FF002869D173
:1031C00001F0BEFEB84203D101F0E4FEB84261D185
:1031D0003059715B49014018CC217158002902D047
:1031E000884700280AD0012803D13059715B490172
:1031F00040180178490601D000F030FF705B401C98
:10320000705331590029D2D144E0D020574C205876
:10321000002803D0E978490800F064FFC025605910
:1032200000282FD0BE26A05BAA27C421615C80B2F3
:10323000884227D201F004FF002823D101F080FE4C
:10324000B84203D101F0A6FEB8421BD16059A15B80
:1032500049014018CC216158002902D08847002834
:103260000AD0012803D16059A15B490140180178B7
:10327000490601D000F0F2FEA05B401CA05361594A
:103280000029D2D1C420205CBE21615A814201D3E1
:1032900001F0D6FE01F0D4FE002801D100F03CFD83
:1032A000012001B0F0BD32480168002900D125E7B6
:1032B000002CEFD0972CEDD02E480078002806D1B6
:1032C0002D480068401C04F0E7FA2B48016000F02C
:1032D0006BFE00F06BFEBE2000903752042001F020
:1032E000E3FE6860C0257159002900D106E7002877
:1032F00000D103E7972800D100E70098305AAA27A9
:10330000C421715C80B2884200D3F7E601F098FED8
:10331000002800D0F2E601F013FEB84204D101F01B
:1033200039FEB84200D0E9E670590099715A490156
:103330004018CC217158002902D0884700280BD0B2
:10334000012804D170590099715A49014018017837
:10335000490601D000F082FE0099705A401C70525C
:1033600071590029CCD1C9E6C01F0020901D002052
:10337000901E00208C1D0020881D002070B582B09A
:10338000234DA87F00280BD0224C204655302449DD
:103390007944072200F087FC5C200021215432E0B0
:1033A0001D482A18294615316846FEF7A0FE002858
:1033B0000FD01A4800682021405C082826D1154CFF
:1033C0002046553017497944062200F06CFC5B34E6
:1033D00017E04026AA5D0F4C553429463A31204665
:1033E00000F061FCA85D202121542018401CB72169
:1033F000890068506846FEF7EFF9A95D401820186B
:10340000441C00202070012002B070BD0020FBE7AA
:10341000801800200C1D00206D040000081D0020F5
:103420003B5000000D500000F0B59FB08B490020CC
:10343000029008708A488B4C21181DA80822FEF7BC
:103440001AFD894826183046FEF7C6FB0546304669
:10345000FEF7E4FB002822D080488C4979440A22F8
:1034600004F01CFB012100277C480078002800D0D4
:1034700089E0002D22D07D4800684069002879D07D
:10348000651801F029FB01467948285C6A461060FE
:1034900073482B1809A8002201F000FC6AE0734869
:1034A00000682027C05D11282CD13046FEF7BCFBF8
:1034B00000280AD0694876497944D0E7380A2DD0E7
:1034C00003AA5770107002252BE068480068C05DA1
:1034D000112817D13046FEF7C5FB002812D000276F
:1034E0005E480146C7714C208871487141200871BF
:1034F0004320C8705F208870502048704F200870AB
:103500000121B1E70B21002D029FADD13046FEF71E
:10351000DDFA00287FD0278D0C21A5E703A80770CE
:10352000012503A8461960184D4941181422304658
:1035300000F0B9FB4F48205C00280DD0608D381A90
:103540000299091A414168460160142109AA5023D1
:103550003046FFF74FFA0DE0012069460F604860E2
:10356000143503A809AE502329463246FEF728FC3D
:103570000021315409A94122384D284604F000FCAD
:103580004020002129543C48205C142811D13B489C
:10359000201840497944042200F0A4FB002808D1F7
:1035A000374820183C497944042200F09BFB00284E
:1035B0001ED04026A25D294F3D46413521463A3175
:1035C000284600F070FBA05D202129542818401CDB
:1035D000B721890060501DA8FEF7FEF8A15D4018D4
:1035E000401C38184121029A425401201FB0F0BDFE
:1035F0002448201801210022FEF761FB1F28174FE5
:103600000CD0034638464130032B0CD0012B10D18F
:103610002249794409E0678D0B2125E7384641307E
:103620001F49794401E01F497944062204F036FA23
:1036300004E014211C4A7A4401F080F83D464135EB
:10364000284604F069FBC6B2A819B721890060506A
:103650000D482018FEF7C0F83018C2E70C1D0020F6
:1036600093030000801800209B030000081D002029
:1036700092030000C50200009D0300009E030000AD
:10368000A2030000A6030000AA030000A05500004A
:1036900050550000464E00006E540000CD4D000015
:1036A000C34D0000C34D0000BB4D0000F0B5AFB0EE
:1036B000E249CA7F897F0026002902D0002A00D172
:1036C000DDE0002A0FD0002800D0D8E05521DC48EA
:1036D0000022425441214254DA497944052204F03F
:1036E000DDF90126CBE004902BA800260822314604
:1036F00000F0EFFAD14BD448185C0A90032800D9A7
:10370000BDE000210A9800280591079103910691D8
:1037100000D199E0002501270695079505950C95A0
:10372000DD19FA48291800200A5C401C0126002AED
:1037300002D100260728F7D92DAC08222046FEF733
:103740009AFB2BA801462246FEF7BAFCF0482C183B
:103750002046FEF763FA05462046FEF705FA0E906E
:103760002046FEF739FA08902046FEF75DFA0D90E4
:103770002046FEF777FA2946054600200990002EDC
:1037800001D100297AD10B91E24800682026805DA2
:10379000112806D129460D9801430120002900D0A7
:1037A00005902046FEF792F90E990843002809D1AA
:1037B00028460D990843002860D0D6480068805DEF
:1037C00011285BD12046FEF781F90E9A104300289C
:1037D00054D0CD4BD048185CCE490968895D112979
:1037E00009D10D990D430B990D43002D23D10028CC
:1037F0000C9D06D120E00B9900290C9D1CD10028BE
:103800001AD0C6481918089B134304200322002B22
:1038100000D010462018142200F064FA0028099EF7
:1038200002D00695B84B07E00120079909060790DA
:10383000B54B01D023E00C9D20783F1809376D1C53
:103840000A98854200D26AE70799080603D1B24870
:10385000185C002810D1CAB20120002A014600D10C
:103860001146059AD2B2002A00D1104608400A99A2
:10387000022907D3002805D1039E00E0099E3046A7
:103880002FB0F0BD1946153129A82BAAFEF72FFC41
:103890009D4B002806D09F490A682021515C0829C9
:1038A000039EECD10B900498002800D091E0B72043
:1038B000810015A858500A98002800D189E00FA867
:1038C000401C07900698C0B20D9000270124059176
:1038D000904800682021405C11281BD118190D4622
:1038E0008A4941180E918A4946183046FEF796F9E2
:1038F0002946854B00280DD13046FEF795F929461B
:10390000814B002806D13046FEF7ACF929467E4BA4
:10391000002816D07F480068405C11280CD0181988
:103920000D467A4941180E9179494018FEF776F90B
:103930002946754B002804D00834181973494518D6
:103940003FE00C912DA808220E991D46FEF793FA30
:1039500026460836A8196D4945182846FEF73CF951
:103960000146002828D10E912846FEF7AFF80B211A
:103970000C22002800D011460919634B1A462A323E
:103980002833002800D01A4610880990020A012323
:103990000FA8002A03D00FA8027002230798099AE3
:1039A00002700FA80893C018574A5118574A89182F
:1039B000142200F078F90E990D98B8420ED03446D2
:1039C000514B28782018441C7F1C0A98874200D24B
:1039D0007EE7B72080000021195082E6002913D02D
:1039E0004C48006840690028474E41D0341901F026
:1039F00073F801464B48205C6A461060EB1C15A822
:103A0000002201F04BF933E045483F4B185C002899
:103A10001CD0588D099989B2081A0021091A414110
:103A2000684601600898C0B20FA90818142115AAA9
:103A30001E465023FEF7DEFF1AE0C0468018002025
:103A40000C1D0020264D0000930300000120694654
:103A5000099A92B20A6048600898C1B214310FA85E
:103A600015AD1E4650232A46FEF7AAF90021295417
:103A70002D4D15A94122284604F082F94027002047
:103A80000E90E855F25D413534463A3428462146D9
:103A900000F009F9F05D0C992954234908184230C7
:103AA000059970502DA8FDF797FEF25D8018281833
:103AB0000E9941700B9800280CD01B4C20465530B5
:103AC0001A497944062200F0EEF85B2000212154C7
:103AD0000D4B7EE7144E55363046214600F0E3F894
:103AE00009480546C05D0C9931540F4908185630F5
:103AF0000599685029A8FDF76FFE2B46E95D40182F
:103B000030180021417064E7801800209303000002
:103B10009B030000081D00208F0300007B030000B2
:103B2000C50200009D0300000C1D0020114900008B
:103B300010B500242046FFF7B9FD002806D004493F
:103B400079440020024603F0F9F80124204610BD14
:103B5000744A000080B5FFF767FC232040010A4942
:103B600008580A4A8958491C0B1A0948553014212B
:103B7000084A7A4400F0E2FD0749794400200246F1
:103B800003F0DCF8012080BD8018002064040000F0
:103B90000C1D00209F480000024B000080B5FFF77D
:103BA000EDFB01460020002906D00449794400209D
:103BB000024603F0C3F8012080BDC046804B0000E0
:103BC000B0B505460F4CC834204604F0A5F82021B6
:103BD00021542018002444700B497A222846FEF70D
:103BE000CFF928462146FEF787F9002802D0084978
:103BF000794401E0054979442046224603F09EF8C5
:103C0000B0BDC046582000200C1D00206A4C0000AA
:103C10004C4C000080B5034979440020024603F073
:103C20008DF880BDBC4C000080B50349794400206C
:103C3000024603F083F880BD184D000080B50549A9
:103C40007A22FEF79DF9044979440020024603F0E8
:103C500075F880BD0C1D0020A04D000010B58CB083
:103C60006C46204603F0FAFFA085000406D16846A2
:103C700001F00EFA0A90FF2001F0CAF901F0FCF9F8
:103C80006946884202D10A9801F002FA6846808D9E
:103C9000002801D10CB010BD00F038F880B500202C
:103CA00001F0F6F980BDB0B5884208D9002A0FD0DE
:103CB000491E401E8B5C8354521EFBD108E0002A33
:103CC00006D000239CB20D5D05555B1C521EF9D138
:103CD000B0BD80B5002A04D00B4611461A4603F049
:103CE000E5FE80BD70B5401E491E541E0023002A0B
:103CF0000AD08D5C865CAE422246F6D00020C043DE
:103D00000123AE4200D80346D8B270BD044601F08C
:103D1000B3F9214603F0AEFF80B501F091F9002818
:103D200000D080BD0648002141706022027002224E
:103D30008270C1700171052101F076F980BDC04625
:103D4000941E0020B0B51A48C078032807DC01286B
:103D50000DD0022828D1174802F067F9B0BD042819
:103D60001FD0082820D1134802F05DF9B0BD114CD6
:103D70000121204602F052F9204602F030F90E4CA3
:103D8000A079002811D120460C30002506222946B2
:103D9000FFF79FFF12340C2220462946FFF799FFB8
:103DA000B0BD044802F03DF9B0BD1020FFF7AEFFF2
:103DB000941E002074220020AC2100207F210140AD
:103DC0000020052902D802484018007B7047C046F1
:103DD000AC21002080B515480179042917D00229AB
:103DE00006D0012920D1811D124801F0FEFF80BDBF
:103DF000C2787F211140052916D84A000C4B9A1829
:103E000000235382821D0B4802F075F880BDC278F2
:103E10007F211140052907D8054A521843791373A9
:103E2000821D044802F00FF880BDC046941E002099
:103E3000AC2100207422002070B5FF2A1ED8154640
:103E40000E4604460E485021017020210171427136
:103E5000D11C817080222243C270090A4170062160
:103E600001F0E2F83046294601F0DEF87F202040DC
:103E70004000044908187D210901418270BDC046F7
:103E8000941E0020AC21002080B50A460146822005
:103E90001423FFF7D1FF80BD80B50A460146832079
:103EA0001423FFF7C9FF80BD80B50C4801780029B5
:103EB00000D080BD062181710A21017008498A78ED
:103EC0004B781B029A18FF232A339A4200D31A46D2
:103ED0004280C91C0348FFF7E6FE80BDAC210020EC
:103EE000941E00205820002010B520488178427888
:103EF0001202511800780F280ADC0E2810D00F2863
:103F000022D10020012926D1FFF71CFF012010BD7E
:103F100010281DD0162817D1FFF7C6FF012010BDAD
:103F200013488168643181601C21425A002A08D0FC
:103F30006423642A144600D31C46121B4252120406
:103F40000ED0891E1029F0D10220FEF707FF10BD08
:103F50000020032900D210BDFFF73CFF012010BD57
:103F6000002101701020FFF7D1FEC046941E0020F2
:103F7000AC210020B0B50A2000F012FF084C00254B
:103F8000202220462946FFF7A4FE65802570A571F2
:103F9000A56000F04FFB034805604560B0BDC0461A
:103FA000AC210020CC2100207047000002480021F5
:103FB000016041607047C046CC210020F0B589B057
:103FC0000546084600F088FD002843D004460069F5
:103FD00000283FD0284600F07FFD014602AD1C229C
:103FE00028460192FFF75FFE2168E98062682A8116
:103FF000A068194F65233B7089B292B24A4342438D
:104000005307D1084A1C002B00D10A46009204260F
:104010008640B0181D30B870000A78700321384609
:1040200001F002F82846019900F0FEFFA068387000
:104030000121384600F0F8FFE06800F04DFDB1B214
:1040400000F0F2FF009885B2206900F045FD294696
:1040500000F0EAFF09B0F0BD941E002070B500F03A
:104060003BFD044600787F26064000F0E9FF00286B
:1040700030D1002E2ED0E06900281DD000F02CFD9C
:104080000546052E02D1A07E002824D0284603F044
:1040900043FE064612486521017031461C3181708D
:1040A000090A4170032100F0BFFF1C21204600F0E7
:1040B000BBFFB1B228460BE00948002141706521E1
:1040C00001701C258570032100F0AEFF20462946B3
:1040D00000F0AAFF70BD20462946FFF76FFF70BDB4
:1040E000941E002070B5002829D0044614480668A4
:1040F00045688E4201D16D1C45600E43002902D0F7
:104100000660324605E00022026042600D4B5B1CF7
:104110001E438A4201D000214160082D0CD30321A7
:10412000284603F0B9FB012290073043002900D054
:104130003046D107884300E030462946A04770BD8D
:10414000CC210020FFFFFF7FF0B581B00F4E01248E
:104150003470B11CFF2750377A1C204600F04AFF0C
:10416000054670703A1A3718F91C022000F042FF19
:10417000B8702D187619F47000F030FF307190206F
:1041800070710020B071E81D01B0F0BD5820002012
:10419000F0B58BB00B460146400708D00691069853
:1041A000C0B299B2FEF7B6FD80B20BB0F0BD4B20A5
:1041B000840080200590A94EA74F069110200D463F
:1041C00005409AB2002A00D1B9E0002D00D0B6E037
:1041D0000492019302900395079107E0002238466C
:1041E000214600F039FF012000F04AF900F028FFD5
:1041F0000028F3D17D200001B1680D18307809281E
:1042000043DC072804994BD0092864D10021944845
:10421000009101F0FDFB10E0FFF77EFD0022384623
:10422000214600F019FFB068A84200D308E1FFF76B
:104230005BFE00F005FF0028F0D1894801F040F94D
:104240000028E9D0049AD01D4008A92800D3FDE039
:1042500005981030834988548818009A4270481D88
:10426000019A921C92B2FFF71EFD05227D4800992B
:10427000FFF72FFD0598C01CC1B20198C01D83B285
:104280007748784A01F0D8FB40E00A28019A04995F
:104290000BD00B2822D17648784400F035FA35E06F
:1042A0007248784400F030FA30E0204625308142F0
:1042B00000D9CBE00D4653203870BA70100A7870E0
:1042C0000321384600F0B0FE6648294600F0ACFEF7
:1042D000002030701DE0002800D1B4E00698C0B284
:1042E000FEF718FD002811D0ADE0FFF715FD002204
:1042F0003846214600F0B0FEB068A84200D39FE0E7
:10430000FFF7F2FD00F09CFE0028F0D13078002885
:10431000EBD10020B071307070800799890600D50C
:1043200042E7FFF7F9FC07990806039D029806D5B6
:10433000089008AA4C4B1846114601DF0799002D3A
:1043400004D1480677D40020B0713070002070800E
:1043500000F076FE002801D1FFF7DEFC002538468C
:1043600021462A4600F078FE022806D8B9787A78E5
:1043700012025118C91C81423ED1FFF7B5FD708869
:1043800031780029E4D00028E2D03A497944042267
:104390003448FFF7A7FC002830D03749794404227D
:1043A0003048FFF79FFC00282DD03449794404227F
:1043B0002C48FFF797FC002840D105982A30C0B25E
:1043C000079000F0E7FD0799884227D10120254D8D
:1043D0002870A81C402100F0CFFD6870811C1D4A88
:1043E00013461140059A10326A54C11C194000222C
:1043F0006A54031D154618E00020A6E7FFF7A4FE47
:104400000346002511E0002016490A464870059928
:10441000084610301070069D0D4305E069201149D3
:1044200008700598401D48700223E9B20695680798
:1044300000D1C3E6B3E67088401FB5E67088B3E6E6
:104440001020FFF763FC0920FFF760FC0220FFF754
:104450005DFCC046FFFF0000941E0020AC21002040
:10446000D421002058200020BE9A0060E3FBFFFF0B
:10447000FDFBFFFFB8460000AD460000A24600006D
:1044800070B5044600F0DCFD002801D1FFF744FCC4
:104490004B2081000B4E002530462A4600F0DCFD03
:1044A0003078152806D8012181400748014201D003
:1044B000002C05D1FFF718FD0125002800D1054685
:1044C000284670BD941E00202070200010B5FFF714
:1044D00023FC084C4B2081000022204600F0BCFD4C
:1044E00020780E2801D0FFF7FFFC00F0A9FD00287E
:1044F000F0D110BD941E0020F0B581B000920446AA
:10450000454EB14210D00F46434D0021402628466B
:104510003246FFF7DEFB009A402A00D33246284697
:104520003946FFF7C0FB3C4EB07801280ADC002872
:1045300025D0012860D1F01C042100F055FC402159
:10454000304628E0022824D0052855D13079F1786A
:1045500009020818314C21680027884252D120688E
:1045600000281BD00098401F85B22D480168A94241
:1045700001D2006885B22B480068711D2EE0F01C46
:10458000002704223946FFF7A4FB40213046A0470C
:1045900038E021484021A047002733E0B079717905
:1045A000090209182048016001684908A82929D88A
:1045B00001681B48016071783278120251181B4A59
:1045C000116018491A4A0A600099C91F8DB2016822
:1045D000A94201D2006885B2F11D15482A46FFF7AD
:1045E00062FB0F480168491B01600E4801684919C8
:1045F00001602068401C20600948016801200227F2
:10460000002907D1054800210160064801600448DF
:104610000160384601B0F0BD182200205822002069
:1046200060220020642200205C22002068220020FA
:10463000582000200348002101600348016003481E
:104640000160704758220020642200206022002070
:10465000F0B581B0264F3A68264C2168002921D058
:10466000002A1FD00090264D002140222846FFF747
:1046700030FB0520A87023480168090A29700068EA
:1046800068701D490868000AE870086828710968A0
:10469000206800290ED03B263B2800D826683968C0
:1046A000681D12E014480021016039601348017050
:1046B00021601BE03926392800D826682068000AC6
:1046C00068712068A8713968E81D3246FFF7EBFA77
:1046D000009A09492068801B20603868801938607A
:1046E0000868401C086006484021904701B0F0BDB2
:1046F000642200206022002058220020AC210020EB
:10470000182200206822002080B500290BD0064A1C
:1047100000231360054A1160054A064B1360064AE0
:104720001160FFF795FF80BD582200206022002015
:1047300064220020582000205C22002081B0F0B5C7
:104740008EB01393022900D2B8E10746002800D1A9
:10475000B4E11546002A00D1B0E10C46384603F01A
:1047600097F913A809902978002900D1A6E1641EC1
:10477000002602E0A8194178761CC8B2002801D0B2
:104780002528F7D1A64200D3264638462946324688
:1047900003F088F9A41BBF19002C00D18EE1A95D9C
:1047A000AD19252900D020E1069404976B1C002444
:1047B00020200A21089127460594079403E00999CF
:1047C0000A1D09920F681D46224629786D1C002497
:1047D0002D29F9D0472919DC2F29069C27DD0B4606
:1047E000303B0A2B00D303E13029044600D10C46AC
:1047F000079B002B00D004460A2307984343581810
:10480000303807902B4620461446DCE76729069C83
:1048100004DD722921DD73293CD122E062293EDCCE
:1048200048294CD1014601200590084617E025296A
:1048300058D02A2926D02E2900D0D9E029782A2933
:1048400000D039E16A786B1C01242A21482AB6D0AD
:10485000682AB4D0732AB2D019E0682937D1102160
:10486000089109990B1D0993032313400968012B33
:1048700000D1BFE0022B00D1BFE0032B2B46144632
:10488000A1D0C0E02978022473292B4697D0049F39
:10489000069CAAE0752927D078291BD0A8E06329B7
:1048A00000D197E0642900D0A2E002900998011D90
:1048B00009910068C11742184A40C00F1AE05829F0
:1048C00000D095E0014601200590084602E07029DD
:1048D00000D08DE002900998011D09910268002026
:1048E000102708E0252079E002900998011D099120
:1048F000026800200A27012497420892039012D8E8
:10490000012638460446394602F040FFB04209D13C
:10491000384660430799491E079108998842264600
:10492000F0D900E034460798411E039B002B00D1CC
:1049300001460026F043002B00D118460190029852
:10494000C2B2302A06D1002B04D00AA82D2303704E
:1049500000230126881E0D280BD80AA88019491E9D
:10496000039303F0A3F8039B07988019019940185B
:10497000461E059A002B03D00AA82D218155761CCE
:10498000002C1AD0002A02D05248784401E0504846
:10499000784407900898214602F0F8FE394602F064
:1049A0007BFF0798405C0AA988552046394602F0EB
:1049B000EDFE761CA7420446ECD9069CA64200D325
:1049C00026460AA9049F3846324603F06BF8A41B1A
:1049D000BF1907E00998011D09910068049F38700C
:1049E000641E7F1C002C69D02978002966D0BFE6A0
:1049F000049FF9E73E46049F0DE0087800283FD069
:104A0000049F069CF0E700228B5C521C002BFBD11C
:104A1000561E049F069C0898102827D1002EE3D02C
:104A20000891002023460146089A125C0F2010408E
:104A30001209022B42D31C46059B002B04D0012BEC
:104A400008D1224B7B4401E01F4B7B44185C7870FB
:104A5000985C38702046A41E02282FD00846481CB7
:104A6000BF1CB0422346DED3079018E0A64200D315
:104A700026463846324603F015F8A41BBF190CE051
:104A8000069CA74200D3274620220498394603F00B
:104A90000DF8E41B0498C0190746002C0ED00798A7
:104AA000B042A1D9861BA64200D326462022384612
:104AB000314602F0FBFF8AE7049F96E700200EB024
:104AC000F0BC02BC01B00847094000001F400000D4
:104AD000C3400000D940000080B50449884204D397
:104AE0000349884201D200F005F880BD0000D0C023
:104AF000C09BD0C07A460249C91C891A401A704727
:104B0000F54AD0C0B12081000748415C002908D097
:104B10000649415C064A825C0A430020801A5041E3
:104B2000704700207047C0468018002076040000BF
:104B3000C5020000044800682021425C01200021D9
:104B4000022A00D308467047081D00204101C917FA
:104B50000C4A0A408101C9170B4B0B40C10189085F
:104B6000594051400201D217084B13404B40C1003D
:104B7000C917074A0A405A408000C1170548084033
:104B8000504070476D8E5026B2576A3BFA19A11EED
:104B9000DD33423DB362142AF0B587B00593049229
:104BA000064602910C7800270120002C03971BD0A9
:104BB0000298401C069001200027254601972946AF
:104BC0004139EAB2202A5FD3C9B21A295CD3FFF770
:104BD000BDFF01460698C25DE020054068094840D7
:104BE0007F1C002A1546EAD10599C919C91D5A2901
:104BF00003994CD8FFF7AAFF002C0ED002994D1C48
:104C0000FFF7A4FF014634701F2020404840691C74
:104C1000761C2C78002C0D46F2D131213170711C9C
:104C200006910599002914D000241A4E7E4403945D
:104C300004990F5D1F2F29D8F55DFFF787FF0699AF
:104C40000D557840641C05998C42F1D306990919D9
:104C500006910624FFF77AFF641EFBD1012148402C
:104C600019220D497944069B0446D4401F2525404E
:104C70004C5D1C70541F5B1C002A2246F4D100209E
:104C800006998871012102E0019900E00399084624
:104C900007B0F0BDFC330000C4330000F0B595B0A0
:104CA000054600200390102A1FDC0C461A99002AA2
:104CB00003D08E1E262E04D917E0142901D02029F6
:104CC00013D104AE327001206A46082782C21060F8
:104CD000701C03A9052200F00AF80398431C0393F3
:104CE000284621463246FFF757FF15B0F0BDF0B514
:104CF00086B003930F4605900024E3439340DD43C1
:104D00000D9800900C9801900B990029264627D009
:104D100050420490002634460198361823468340BA
:104D2000039804781C43401C0390491E029196424C
:104D300013DB3B6829465D1C3D60049885191046CD
:104D40003A462746EC400D4605992C40CC543C464B
:104D500017460246361A8642EBDA02990029DBD161
:104D6000009800280DD0002E14D03B6839462F46FD
:104D700025465C1C0C60911B8D403D400598C55438
:104D800008E0911B8C402C4000210198864202DAF9
:104D9000002C00D10121084606B0F0BD01DF7047AC
:104DA00080B584B00190034801A9FFF7F7FF04B074
:104DB00080BDC0463701006080B582B002486946B8
:104DC000FFF7ECFF02B080BD3C02006080B586B00A
:104DD000019002910392034801A9FFF7DFFF06B09B
:104DE00080BDC0467F03006080B584B00090019113
:104DF00003486946FFF7D2FF019804B080BDC04662
:104E00002C05006080B588B0009001910292039358
:104E10000A9804900B98059003486946FFF7BEFF77
:104E2000019808B080BDC0463B07006080B584B0E3
:104E30000190034801A9FFF7B1FF029804B080BDBB
:104E40007F08006080B584B00190034801A9FFF796
:104E5000A5FF029804B080BDDB0A006080B588B071
:104E600000900191029203930A9804900B98059088
:104E700003486946FFF792FF019808B080BDC0461D
:104E80002B1A006080B586B00090019102920393C6
:104E900003486946FFF782FF019806B080BDC0460F
:104EA000EA2E006080B586B00090019102920393D3
:104EB00003486946FFF772FF019806B080BDC046FF
:104EC0002E2F006080B58AB000900191029203936A
:104ED0000C9804900D9805900E9806900F980790E6
:104EE00003486946FFF75AFF01980AB080BDC046E3
:104EF000F338006080B58AB0019002910392049368
:104F00000C9805900D9806900E980790034801A9FB
:104F1000FFF744FF02980AB080BDC046F139006037
:104F200080B586B0019002910392044801A9FFF771
:104F300035FF029880B206B080BDC0466E92006018
:104F400080B582B003486946FFF728FF0198C0B2D8
:104F500002B080BD4F9F006080B588B00190029183
:104F6000039204930A980590024801A9FFF716FFDF
:104F700008B080BDBA53006080B584B00090019144
:104F800003486946FFF70AFF019804B080BDC04698
:104F9000FCA8006080B582B003486946FFF7FEFEBA
:104FA0000198C0B202B080BD3CA0006080B584B062
:104FB0000190034801A9FFF7F1FE029804B080BDFB
:104FC0005864006080B584B00190034801A9FFF7E0
:104FD000E5FE04B080BDC0464569006080B582B082
:104FE00003486946FFF7DAFE019802B080BDC0466B
:104FF0006E6A006080B586B001900291039203480A
:1050000001A9FFF7CBFE029806B080BDD474006002
:1050100080B584B00190034801A9FFF7BFFE04B03A
:1050200080BDC046BE9A006080B584B000900191FA
:1050300002486946FFF7B2FE04B080BD818300607C
:1050400080B582B003486946FFF7A8FE019802B018
:1050500080BDC046BB84006080B586B001900291DF
:105060000392044801A9FFF799FE029880B206B0A6
:1050700080BDC046E485006080B582B003486946C3
:10508000FFF78CFE019802B080BDC046B18700607A
:1050900080B584B00190034801A9FFF77FFE029814
:1050A00004B080BD7588006080B584B0019004486C
:1050B00001A9FFF773FE0298C0B204B080BDC046DC
:1050C0008B9C0060F0B583B0354A1278002A03D07B
:1050D0008321354A7A440BE0089A452A03D8832174
:1050E000324A7A4404E0072907D18321304A7A44BE
:1050F000022300F0A1FC03B0F0BD0092019040201B
:1051000002931E5C002E1AD0052E029D08D128465F
:105110004130284979440522FEF7E4FD00282BD0D0
:1051200041350024244F7F44E0B2032102F0B4FB58
:10513000285D795C41402955641CA642F4D1452084
:105140000299085C4630009A90420FD141311548CF
:105150003246FEF7A8FD0720114988714E800920CC
:1051600008700121019800F053FCC4E78321134A21
:105170007A4402230198BCE70A4D03222A70681C76
:105180000F497944FEF78FFD281D0E49794404220A
:10519000FEF789FD2878431D832101982A46A8E758
:1051A000AC21002058200020A139000095390000D2
:1051B0008B390000673900005B3900001A390000A4
:1051C000FF380000F9380000F0B581B01D460E46EA
:1051D0000446184600F010FC00280ED02068C11CC0
:1051E000090A6A469170811C090C5170411C090E14
:1051F0001170001D2060D07004E06846042229462A
:10520000FEF751FD174F082238463146FEF74BFD99
:105210003846083069460422FEF745FD00207873C1
:10522000022139730121B973F8733874284600F0EC
:10523000E3FB0146201D8625002906D02946793149
:10524000C9B20422FEF745FD03E069460422FEF7D9
:105250002AFD044A11232046294600F0EDFB01B047
:10526000F0BDC04658200020F0B583B00290887988
:105270004B791B021F18887801904B780E781546E1
:10528000093DACB2A74204D0D01FD21F92B29742C0
:105290001BD13D46002E08D083211C4A7A440223AC
:1052A000029800F0C9FB03B0F0BD022B18DC012B03
:1052B00023D0022B1DD1A8B26A461060CB1D00225C
:1052C00002980199FFF7FEFEEDE7E4B2A742E1D0B4
:1052D000D2B297420546DDD083210D4A7A44DEE7FB
:1052E000032B0ED0C12B04D183210A4A7A44042314
:1052F000D6E783210A4A7A44D1E78321064A7A44D1
:10530000CDE78321054A7A440823C9E7FC3700002A
:105310009B370000A8370000753700008637000073
:10532000A437000080B5C1698A784B781B029B18AE
:105330000A78812A09D0832A0DD0862A0FD1C91C68
:10534000031D0022FFF740FF80BDCA1C9BB28121D4
:1053500000F072FB80BDC91C9AB2FFF785FF80BDCB
:1053600070B5012A13D10D460146094C20462A4644
:10537000FEF799FC60194026721B00252946FEF7AE
:10538000A8FC8120214632462B46FEF755FD70BD14
:10539000182200200282C1600022C28282764285E9
:1053A0008284C16102627047F0B583B00D46044645
:1053B0002A20215C20462A30012948D0002939D1F1
:1053C0002B210022625422462B322021635CDB1EFB
:1053D000DBB226462036012B3CD8238BE78ABB4222
:1053E0003AD9A07E032201260090002800D0324640
:1053F000681E00260296361A4641B0001018402258
:10540000012D00D00A46161AD91BB14200DC0E4607
:1054100031180191012D0746009806D1211D27481A
:1054200004220292FEF73FFCA07E002821D0401EFD
:10543000029929E02521615C062908D12B21635CB2
:105440000022625422462B32002B03D1BDE72B20D1
:105450000021215403B0F0BDFCD10021A176E182EE
:1054600011700170B1803160E068E0611248017034
:10547000F0E74020205C1149029A88540120104333
:10548000627E0A54411C207E0C4B5854E16900296D
:1054900005D0B2B2D819E38AC918FEF704FCE08A35
:1054A0008019E082A07E401CA076019881B203485A
:1054B0002A46FFF755FFCDE7AC2100201822002037
:1054C0002A21425C0121002A0DD0012A01D10021AC
:1054D00009E02521425C0021062A04D12B21405CF1
:1054E0000021091A4141084670470000B0B52B2140
:1054F00001244454011D0B4D04222846FEF7D3FB22
:1055000000206871832028710220A8716920E87149
:105510007C20C043801C2872092128462246FFF7C0
:105520001FFFB0BD18220020B0B52B210124445428
:10553000011D084D04222846FEF7B5FB00206871C6
:1055400088212971A871072128462246FFF708FF04
:10555000B0BDC04618220020F0B581B00446252019
:10556000205C26462536002505286AD008784B7829
:105570001B0218188B78CD782D02EB181B04181815
:10558000237965792D02EB18A579E7793F027D191A
:105590002D04EB18834257D108790B1D658C002D23
:1055A00013D02423E75C23462433B8424CD1278B05
:1055B000401C18707B1B501F984200DB18462A18AD
:1055C000628482B2208D491D23E07C25ED436D1D50
:1055D000EFB28325B84204D12046FFF7A5FF01258D
:1055E0002FE08F7949790902C919C91CA8422BD12A
:1055F000208B8DB2A84227D189B2164D24270020D6
:10560000E055121F8A4200DB0A46628415401946A3
:105610002A46FFF785FC2085218B628C01258A4272
:105620000FD3E18C88420FD10620307000206084B7
:105630002A20205C012804D12046FFF757FF0020D4
:105640003070284601B0F0BD052030701020FEF704
:105650005DFBC046FFFF0000F0B589B00446037251
:105660002020205C2646203603280CD00F462A2115
:10567000615C25462A35002915D020463946FFF7BA
:105680006BFF002874D1D8480621017204213170C3
:105690007A21C9433A314022A1540830E061002008
:1056A000A076E0825EE00892042809D12B20002138
:1056B0002154A176E1822970B1803160E068E06117
:1056C000581E1A460023191A414188000790411CB0
:1056D0000898814238D804910692012A059305D191
:1056E000201D04223946FEF7DEFA059BE08A0028D9
:1056F0000BD00698012821D120461230211D04220A
:10570000FEF7F0FA059B002818D00325079A1046EB
:1057100028430899884217D8B8180390B8567A21B8
:10572000C9437A3149B2852288423FDDAE4804211F
:10573000017231703A32402162540FE00220079A20
:1057400010430899884215D9A74885210172042180
:1057500031707A21C9433A314022A1540830E061C6
:10576000A376E38201202083217A2046FFF71CFEE6
:1057700009B0F0BD2120205C0699884249D13078DB
:10578000012854D10698012800D080E0211D042270
:10579000384603921D46FEF7A5FA079A2B460028C5
:1057A00075D09148062101720399D1E70292069AB9
:1057B000012A14D1307801281DD1201D2146123133
:1057C00004220190FEF78EFA069A002807D003986B
:1057D00000780299491CC9B2884200D0EAE03078CA
:1057E000012808D1012A7ED1039800780299491C2A
:1057F000C9B2884277D1049978184078795C090257
:105800000F18208AC01E87421FDD774805720421C9
:105810006CE07A20C04301460831734A11720421BA
:1058200031703A30402160540832E26198E70698BE
:10583000012854D12B2000212154A176E182297026
:10584000B1803160E068E06192E7039800788128D8
:1058500004D0862853D0832800D095E0012A59D15E
:10586000251D62497944042228460492FEF73AFA3B
:10587000002807D05E49794404222846FEF732FA10
:10588000002847D158480B21017204992EE0B9181D
:10589000B85CA27E904222D10898049A851AE08AC8
:1058A000228B121A954200DB1546AFB2E26910183E
:1058B000491C3A46FEF7F7F90699012908D1E08A12
:1058C000E1690918E08C3A46FFF72AFB0699E08463
:1058D000E08A4019E082A07E401CA07640E0424869
:1058E0000421017234E74048042101723170029AA8
:1058F0003A32402162540830E0610598D0E6012A2E
:1059000042D1201D3B49794404252A46FEF7EAF995
:10591000002863D008980799451AF81C854200DBD7
:1059200005460890AFB2E06903993A46FEF7BBF925
:105930000699012906D1E16900203A46FFF7F0FAFD
:105940000699E0842120215408982083E582059857
:10595000A07620461230211D0422FEF7A4F90699F4
:10596000E08A012902D1218B059B07E0218BCA1C0B
:105970008242059B02D21C480321E7E6884213D2EB
:10598000636301203070F3E617480121017204229D
:105990003270029B3A334022A3540830E061002069
:1059A000A076E0822183DFE6022030702046FFF7F8
:1059B000B9FCDDE60C4C042220460199FEF773F990
:1059C0000598607102983A3020710122A271062078
:1059D000E07108212046FFF7C3FCC9E602480B210D
:1059E0000172357083E7C04618220020383200006B
:1059F0002A3200009A31000080B50449794404221B
:105A0000FEF770F90021091A484180BDA03000005E
:105A100080B52A22835C02462A32002906D0002B58
:105A200008D101211170FFF761FD80BD012B01D16B
:105A30000220107080BD000070B504462A20205C52
:105A4000002809D0012824D02520205C062820D158
:105A50002B20205C00281CD1202003252554402029
:105A600021540020A076E261E08223832120215C82
:105A70002546213503290DD1084E3078002808D05D
:105A8000032100E029782046FFF78EFC30780028BB
:105A9000F8D170BD2046FFF787FC70BDAC21002017
:105AA0000249002008600249086070477022002007
:105AB0006C22002010B50748002444704F2101706B
:105AC000012181700221C1700421FFF7ADFA204647
:105AD00010BDC046941E002070B582B06D460024F3
